:020000040800F2
:10000000FCFF0020F1170000E9170000E9170000CD
:10001000E9170000E9170000E9170000E9170000E0
:10002000E9170000E9170000E9170000E9170000D0
:10003000E9170000E9170000E9170000E9170000C0
:10004000E9170000E9170000E9170000E9170000B0
:10005000E9170000E9170000E9170000E9170000A0
:10006000E9170000E9170000E9170000E917000090
:10007000E9170000E9170000E9170000E917000080
:10008000E9170000E9170000E9170000E917000070
:10009000E9170000E9170000E9170000E917000060
:1000A000E9170000E9170000E9170000E917000050
:1000B000E9170000E9170000E9170000E917000040
:1000C000E9170000E9170000E9170000E917000030
:1000D000E9170000E9170000E9170000E917000020
:1000E000E9170000E9170000E9170000E917000010
:1000F000E9170000E9170000E9170000E917000000
:10010000E9170000E9170000E9170000E9170000EF
:10011000E9170000E9170000E9170000E9170000DF
:10012000E9170000E9170000E9170000E9170000CF
:10013000E9170000E9170000E9170000E9170000BF
:10014000E9170000E9170000E9170000E9170000AF
:1001500001480068704700BF6C00002081B0CDF8F6
:1001600000E081B2034800F0D5FADDF800E001B00C
:10017000704700BF0038004081B0CDF800E081B288
:10018000034800F0C7FADDF800E001B0704700BF97
:10019000003C004081B0194900EA010108460022F4
:1001A0000EE0042022E0082020E010201EE02020A5
:1001B0001CE040201AE0802018E040F2001015E01A
:1001C0000F498842EDD00F498842ECD00E49884251
:1001D000EBD00E498842EAD00D498842E9D00D495A
:1001E0008842E8D00C498842E7D010460B4909689C
:1001F00041EA000209490A6001B0704700FCFFFFB4
:1002000000080140000C01400010014000140140B2
:1002100000180140001C014000200140181002405D
:1002200082B0CDF800E0034619460191FFF790FF38
:1002300040F2E83100FB01F201990A601F49097898
:10024000C1F30311C8B21E4909180878C0B21A1DBB
:100250001968C140116019490988C1F3022188B2A7
:10026000174909180878C0B203F20802191D096875
:10027000C140116011490988C1F3C22188B21049F7
:1002800009180878C0B203F20C02191D0968C140B0
:1002900011600A490988C1F3813188B209490918F6
:1002A0000978C8B203F2100203F20C010968B1FB2D
:1002B000F0F11160DDF800E002B070470410024078
:1002C0009D1B0000840B000083B0CDF800E000F01F
:1002D000FF031A09104603F00F02134614E0194AEF
:1002E00002921FE0184A02921CE0184A029219E09A
:1002F000174A029216E0174A029213E0164A029237
:1003000010E0164A02920DE00028E8D00128E9D05A
:100310000228EAD00328EBD00428ECD00528EDD041
:100320000628EED0012212B29A40ADF804200298BD
:100330000A46BDF8041000F02DFADDF800E003B025
:10034000704700BF00080140000C01400010014050
:100350000014014000180140001C01400020014031
:1003600081B0CDF800E081B2034800F0D3F9DDF8A8
:1003700000E001B0704700BF0030014081B0CDF80F
:1003800000E0012252B23E490A6000F268010B68A7
:100390006FF0006103EA0102144603F00061C90E28
:1003A0000B4602F00041B1F1004F02D135490A6815
:1003B00001E035490A6804F47021090C0E464FF635
:1003C000FF7104EA01010D4604F44011B1F5401F2C
:1003D0000DD16FF0706102EA01010E462A490A68E8
:1003E0006FF070610A4028490A60324616E004F452
:1003F0008011B1F5801F09D14FF00301B140C9430D
:1004000002EA010141F070610A4607E0610D09014D
:1004100005FA01F1C9430A4042F070622BB1610D47
:10042000090105FA01F10A43FFE704F00041B1F1C7
:10043000004F02D113490A6001E013490A6040F2FB
:10044000000A81464FEA8A0109EB01010968B1F10E
:10045000FF3F10D009F134014FEA8A03C918096837
:100460000A4609EB0301096808461146FFF72CFF0D
:100470000AF1010AE6E7DDF800E001B0704700BFCD
:10048000000342421C0001400400014089B0CDF845
:1004900000E0834698B28C46BDF824100A9E04AC56
:1004A000ADF80410ADF808002046FFF7B9FEBDF81E
:1004B0000800BDF80410644CA34512D101256DB2AB
:1004C000624C2560624D634C2560634D634C256032
:1004D000634D644C2560644D644C2560079C039417
:1004E00056E0634CA34512D101256DB2614C2560E5
:1004F000614D584C2560614D584C2560604D594CFC
:100500002560604D594C2560069C039440E05E4C8C
:10051000A34512D101256DB25C4C25605C4D4D4C5C
:1005200025605C4D4D4C25605B4D4E4C25605B4D10
:100530004E4C2560069C03942AE0594CA34512D1E9
:1005400001256DB2574C2560574D424C2560574DE3
:10055000424C2560564D434C2560564D434C25601A
:10056000069C039414E0544CA34511D101256DB2AF
:10057000524C2560524D374C2560524D374C25600A
:10058000514D384C2560514D384C2560069C0394E4
:10059000ADF80410ADF808003046FFF7EFFEBDF8E7
:1005A0000800BDF804100BF1100500242C600BF1BD
:1005B00010052C680C432C600BF10C0500242C60FA
:1005C00018B140F4806080B2FFE70BF10C052C6895
:1005D00004432C600BF10C060125346865F34D349F
:1005E00034600BF10C060125346865F3C3043460F4
:1005F0000BF10C060125346865F3820434600BF1BD
:10060000140500242C60039D192465434FEA8C04D3
:10061000B5FBF4F76424B7FBF4F426013509642430
:100620006C433C1B240104F232056424B5FBF4F452
:1006300004F00F0446EA04040BF10805A4B22C6090
:10064000DDF800E009B0704700380140380342424D
:100650008D0A000078000020FFFFFFFF7C000020D3
:10066000FFFFFFFF80000020FFFFFFFF840000204E
:1006700000440040C4034242550A0000FFFFFFFF50
:10068000FFFFFFFFFFFFFFFF00480040C80342429B
:10069000E10A0000FFFFFFFFFFFFFFFFFFFFFFFF7B
:1006A000004C0040CC034242A90A0000FFFFFFFFBC
:1006B000FFFFFFFFFFFFFFFF00500040D00342425B
:1006C000F5090000FFFFFFFFFFFFFFFFFFFFFFFF38
:1006D00081B000230360CB009BB242EA03030468AD
:1006E0009BB244EA03030360051D13141C462B68E8
:1006F00064F382032B6000F21C0500242B6864F372
:10070000CB232B600124036864F38613036001B0DC
:100710007047FFFF81B000F20C02116000F2080286
:100720001368C3F3000202B9F8E700F20C02126882
:1007300090B201B07047FFFF83B0CDF800E0ADF894
:1007400008100190BDF80830BDF80820521EADF821
:1007500008204BB10020064C2468A047019A107075
:10076000019A521C0192EDE7DDF800E003B07047FA
:100770006400002081B0ADF800100146BDF8000013
:100780000B68C3F3C01202B9FAE70A1D106001B08A
:100790007047FFFF81B0CDF800E08CB21546774B73
:1007A00000EA03031E461846FFF7F4FCB4F1FF0FFE
:1007B0000CD1734B9D4203D14FF033333360D9E0FA
:1007C000422D03D14FF044333360D3E04FF6FF7333
:1007D0009C4214D16A4B9D4207D14FF033333360B2
:1007E000341D4FF033332360C4E0422D07D14FF066
:1007F00044333360341D4FF044332360BAE00021AA
:10080000002005F001030BB100211DE005F00203FB
:1008100033B105F4C0730BB1082100E0042113E0EB
:1008200005F0040333B105F020030BB1042100E00F
:10083000002109E005F0080333B105F020030BB1F6
:100840000C2100E00821FFE74E4B05EA03030BB142
:10085000032009E005F400730BB1022004E005F465
:1008600080630BB10120FFE705F00C030BB10143DE
:10087000FFE704F0FF039BB2002B3BD0376800205A
:100880001FFA84F832462E4608282CD24FF0010376
:1008900003FA00F408EA0403A34222D185004FF0D2
:1008A0000F03AB40DB4307EA030401FA05F344EA14
:1008B00003031D4606F48173B3F5817F05D102F26F
:1008C00014044FF001038340236006F08203822B5F
:1008D00005D102F210044FF00103834023602F463C
:1008E000FFE7401CD0E717601FFA88F00F4631463B
:1008F000164602E00F462946A0B2B0F1FF0F39D9E3
:10090000331DD3F800800022082A30D202F20804F6
:100910004FF0010303FA04F400EA0403A34224D1D4
:1009200095004FF00F03AB40DB4308EA030807FADA
:1009300005F348EA030801F48173B3F5817F07D119
:1009400006F2140502F208044FF00103A3402B60E5
:1009500001F08203822B07D106F2100502F208048F
:100960004FF00103A3402B60FFE7521CCCE7331D7F
:10097000C3F80080DDF800E001B0704700FCFFFF25
:10098000140008000008080081B006B54FEA4002D4
:100990004FEA12627F3A44BF4FF0000011E0D2F1FB
:1009A0001F0209D94FEA002141F00041D14000283F
:1009B0004CBF4842084604E000284FF0004058BFB2
:1009C000401EBDE8064001B07047FFFF81B0CDF882
:1009D00000E0019D2C4610B408B493B28AB20146DF
:1009E0000348FFF753FD02B0DDF800E001B07047A7
:1009F0000044004081B0CDF800E081B20348FFF729
:100A0000B9FEDDF800E001B0704700BF00500040C3
:100A100081B0CDF800E0019D2C4610B408B493B22B
:100A20008AB201460348FFF731FD02B0DDF800E06D
:100A300001B070470038014081B0CDF800E081B2CC
:100A40000348FFF767FEDDF800E001B0704700BF24
:100A50000030014081B0CDF800E081B20348FFF7DB
:100A600089FEDDF800E001B0704700BF004400409F
:100A700081B0CDF800E081B20348FFF74BFEDDF80E
:100A800000E001B0704700BF003C004081B0CDF8ED
:100A900000E081B20348FFF76DFEDDF800E001B031
:100AA000704700BF0038014081B0CDF800E081B24E
:100AB0000348FFF75FFEDDF800E001B0704700BFBC
:100AC000004C004081B0CDF800E081B20348FFF750
:100AD00021FEDDF800E001B0704700BF00380040A3
:100AE00081B0CDF800E081B20348FFF743FEDDF8A6
:100AF00000E001B0704700BF0048004081B0CDF871
:100B000000E04FF0420289B2FFF744FEDDF800E05A
:100B100001B0704781B0CDF800E0044A89B2FFF718
:100B200039FEDDF800E001B0704700BF1400080096
:100B300083B0CDF800E08DF8040002910B4C0C4B13
:100B40001C600C4C0C4B1C60012464B20B4B1C60F1
:100B50001046FFF713FC029A9DF804100848FFF7AF
:100B6000B7FDDDF800E003B0704700BF7901000079
:100B700070000020710A000074000020BC03424293
:100B8000003C00400204060842F6DF67C0F200079E
:100B90007F1EFDD100BF00BF00BF00BF00BF704778
:100BA00081B0CDF800E002B5002802D5FFF7ECFED9
:100BB00013E04FEA40014FEA11617F393CBF4FF02B
:100BC00000000AE0D1F11F0105D34FEA002040F0F8
:100BD0000040C84001E00020401EBDE80240DDF8B2
:100BE00000E001B07047FFFF81B0FAB590EA02065D
:100BF0004CBF4FF000464FF00006010243001B0EB1
:100C000012BF41F000414FF000003BE0FF2B35D018
:100C10005FEA02245FEA42055FEA156511BF44F00E
:100C200000444FF0FF4030432CE0FF2D26D05B1BEB
:100C30000020202764084908A14240EB000028BF9B
:100C4000091B7F1E04D0002918BF4900F4D1B84009
:100C500010F0004F04BF4000B3F1010380302CBFFF
:100C60005B1C40007F33DCBF4FF000000AE0FF2B2D
:100C700004D2400A40EAC350304303E0FF27FF0597
:100C800056EA0700BDE8FA4001B0704781B000287D
:100C900008BF0FE002B54FF09E0202D4521E400082
:100CA000FCD580302CBF521C4000400A40EAC250A4
:100CB000BDE8024001B0704782B0CDF800E00020EE
:100CC0000E4C2468A04701A80221FFF735FD012042
:100CD0000A4C2468A04701AA1078010289B2501C6E
:100CE000007841EA000080B2C10889B240F2FF30CA
:100CF00001EA0000DDF800E002B070476800002063
:100D000081B0CDF800E0019D2C4610B408B493B238
:100D10008AB201460348FFF7B9FB02B0DDF800E0F4
:100D200001B070470048004001490860704700BFAB
:100D3000AC01224201490860704700BFA80122426D
:100D400001490860704700BFB08122420149086034
:100D5000704700BFB001224201490860704700BFE0
:100D6000B881224201490860704700BF94012142C6
:100D700001490860704700BF9C8121420149086019
:100D8000704700BF9881214201490860704700BF49
:100D90008C01224201490860704700BF98812142BE
:100DA00001490860704700BF9C81214288B0CDF89E
:100DB00000E08DF80C000021019100218DF8081051
:100DC0009DF80C209DF8081091420CD2FFF774FF9B
:100DD000019909180191FFF7D7FE9DF80810491CE9
:100DE0008DF80810ECE70198FFF750FF01460791D6
:100DF0009DF80C00FFF74AFF0490049A0798FFF74C
:100E0000F3FEFFF7CDFE80B2DDF800E008B07047DA
:100E100001490860704700BF94812242026803497B
:100E20000A60011D0A6802490A60704760000020DC
:100E30006400002001490860704700BF9881224289
:100E400001490860704700BFB081224200F20801EA
:100E50000A6801490A6070476800002081B0FAB54D
:100E600090EA02064CBF4FF000464FF000064FEAF2
:100E700000214FEA40031B0E12BF41F000414FF02A
:100E800000002CE0FF2B26D04FEA02244FEA420557
:100E90002D0E12BF44F000444FF000001FE0FF2D64
:100EA00019D05B19A1FB0454002C5CBF64005B1ECD
:100EB000803424BF5B1C64087E3BDCBF4FF0000025
:100EC0000DE0FF2B07D24FEA142030F4000040EA77
:100ED000C350304303E0FF27FF0546EA0700BDE8A3
:100EE000FA4001B07047FFFF01490860704700BF3A
:100EF000A081224281B0CDF800E00178CCB2A0B24E
:100F0000034C2468A0470020DDF800E001B07047E2
:100F10005C00002081B0CDF800E0A9E0012905D1F6
:100F200040F210016548FFF7E9FD04E040F21001CE
:100F30006248FFF7EFFDBBE0012905D140F2040153
:100F40005F48FFF7DBFD04E040F204015C48FFF777
:100F5000E1FDADE0012905D142F200015948FFF75A
:100F6000CDFD04E042F200015648FFF7D3FD9FE0BB
:100F7000012905D140F200415148FFF7BFFD04E0CF
:100F800040F200414E48FFF7C5FD91E0012905D12F
:100F900040F600014A48FFF7B1FD04E040F60001C9
:100FA0004748FFF7B7FD83E0012905D141F2000171
:100FB0004348FFF7A3FD04E041F200014048FFF77A
:100FC000A9FD75E0012905D140F201013B48FFF779
:100FD00095FD04E040F201013848FFF79BFD67E012
:100FE000012905D140F200413648FFF787FD04E0B2
:100FF00040F200413348FFF78DFD59E0012905D14A
:1010000040F200212F48FFF779FD04E040F2002173
:101010002C48FFF77FFD4BE0012905D140F200117C
:101020002848FFF76BFD04E040F200112548FFF768
:1010300071FD3DE0012905D140F240012248FFF752
:101040005DFD04E040F240011F48FFF763FD2FE023
:10105000012905D140F280011B48FFF74FFD04E054
:1010600040F280011848FFF755FD21E0012020E003
:1010700000283FF453AF01283FF45EAF02283FF44D
:1010800069AF03283FF474AF04283FF47FAF05280D
:101090003FF48AAF06283FF495AF0728A0D0082870
:1010A000ACD00928B8D00A28C4D00B28D0D0DDE7AE
:1010B0000020DDF800E001B0704700BF00080140EB
:1010C0000010014000140140000C014081B0CDF837
:1010D00000E0011D0A680168C8B21146034AFFF723
:1010E00027FD0020DDF800E001B07047981A0000ED
:1010F00081B0CDF800E0011D0A680168C8B2114650
:10110000034AFFF715FD0020DDF800E001B070474D
:10111000981A000081B0CDF800E0094902B440F20D
:10112000000340F2000240F20001FFF74FFC01B063
:10113000044A05490A600020DDF800E001B070476C
:101140002C1A0000550A00005C00002081B0CDF888
:1011500000E0A9E0012905D140F220016548FFF730
:10116000CDFC04E040F220016248FFF7D3FCBBE075
:10117000012905D140F208015F48FFF7BFFC04E0F8
:1011800040F208015C48FFF7C5FCADE0012905D13C
:1011900044F200015948FFF7B1FC04E044F20001B9
:1011A0005648FFF7B7FC9FE0012905D140F2004106
:1011B0005148FFF7A3FC04E040F200414E48FFF71E
:1011C000A9FC91E0012905D140F600014A48FFF74A
:1011D00095FC04E040F600014748FFF79BFC83E0E4
:1011E000012905D141F200014348FFF787FC04E0E3
:1011F00041F200014048FFF78DFC75E0012905D15F
:1012000041F200013D48FFF779FC04E041F20001A2
:101210003A48FFF77FFC67E0012905D140F600015D
:101220003648FFF76BFC04E040F600013348FFF757
:1012300071FC59E0012905D140F240012F48FFF728
:101240005DFC04E040F240012C48FFF763FC4BE0FA
:10125000012905D140F220012848FFF74FFC04E0A6
:1012600040F220012548FFF755FC3DE0012905D15A
:1012700040F240012248FFF741FC04E040F2400107
:101280001F48FFF747FC2FE0012905D140F28001FC
:101290001B48FFF733FC04E040F280011848FFF7D9
:1012A00039FC21E0012020E000283FF453AF012861
:1012B0003FF45EAF02283FF469AF03283FF474AFF8
:1012C00004283FF47FAF05283FF48AAF06283FF497
:1012D00095AF0728A0D00828ACD00928B8D00A2894
:1012E000C4D00B28D0D0DDE70020DDF800E001B04D
:1012F000704700BF00080140001001400014014089
:10130000000C014081B0CDF800E0094902B440F280
:10131000000340F2000240F20001FFF7F1FC01B0CF
:10132000044A05490A600020DDF800E001B070477A
:1013300054190000E10A00005C00002081B0CDF8E3
:1013400000E0094902B440F2000340F2000240F21A
:101350000001FFF75DFB01B0044A05490A60002067
:10136000DDF800E001B07047C01900008D0A0000F0
:101370005C00002081B0CDF800E0094902B440F2E1
:10138000000340F2000240F20001FFF71FFB01B032
:10139000044A05490A600020DDF800E001B070470A
:1013A0002C1A0000550A00005C000020014908606A
:1013B000704700BF8001214201490860704700BFAB
:1013C000B001224201490860704700BFA481224257
:1013D00001490860704700BFA881224201490860A6
:1013E000704700BFAC01224201490860704700BF4E
:1013F0008801224201490860704700BF90012142E4
:1014000001490860704700BFA801224201490860F5
:10141000704700BFB481224281B00A4681B20020E9
:101420008DB21146052805D20B1820221A70401CD7
:10143000C0B2F7E70B1800221A70401EC0B20C1899
:101440000A23B5FBF3F203FB125292B23032227040
:101450000A22B5FBF2F292B295B202B902E0401E46
:10146000C0B2ECE701B0704781B0CDF800E05FFAA0
:1014700081F95FFA82FA0FE05FFA8AF15FFA89F088
:10148000FFF748FD0DE05FFA8AF15FFA89F0FFF798
:101490005DFE06E0012004E00028EDD00128F2D036
:1014A000F8E7DDF800E001B07047FFFF81B0CDF84C
:1014B00000E08B4609E05846FFF71AFE0AE058465E
:1014C000FFF704FE06E0012004E00028F3D0012825
:1014D000F5D0F8E7DDF800E001B0704781B0CDF855
:1014E00000E003460846FFF799FC1846FFF7AEFCFC
:1014F0000120034C2468A047DDF800E001B07047EC
:101500006800002083B0CDF800E0024610460D22AE
:101510008DF808200A228DF809201FE0FFF7EAFC69
:1015200023E002782AB10190FFF7E4FC0198401C07
:10153000F7E71AE002782AB10190FFF7DBFC019887
:10154000401CF7E702AA1046FFF7D4FC0DF1090290
:101550001046FFF7CFFC08E0062007E00029DDD0A9
:101560000129DED00229E5D0F6E70020DDF800E011
:1015700003B0704781B0CDF800E011E00846FFF7F6
:10158000C1FE16E00846FFF7F5FE12E00846FFF739
:10159000D5FE0EE00846FFF7BDFD0AE0012008E099
:1015A0000028EBD00128EDD02028EFD03028F1D052
:1015B000F4E7DDF800E001B07047FFFF81B0CDF83F
:1015C00000E0FFF7F3FBFFF761FB0C4AFFF70CFBB2
:1015D0000B4AFFF743FC0B4AFFF740FC0A4AFFF7B0
:1015E00003FB0A4AFFF700FB094AFFF737FCFFF746
:1015F000D7FA80B2DDF800E001B0704700C07F4448
:101600006F12034066661E410000C842CDCC4C3DBF
:1016100000007A4481B01CF8019B0BF8019BBBEBE6
:101620000A0FF8D101B0704781B01548006840F04A
:101630000101134801601349134801601048016813
:10164000124801400E4801600D4801686FF4802087
:1016500001400B4801600C4801686FF4FE00014036
:1016600009480160064801686FF0A0500140044835
:1016700001604FF000010648016001B0704700BFF3
:10168000001002400000FFF004100240FFFFF6FED1
:101690002C10024081B04FF000094FF0000CBDEB60
:1016A0000A0F04DCBDEB0B0F01DBD446EA464BF816
:1016B000049BBBEB0A0FFAD1BCEB0A0F05DDE24637
:1016C000D9F800B00BF1040BF1E701B07047FFFF50
:1016D00081B0CDF800E00D490D48FFF7FFFE4EF652
:1016E0007F67C0F2360700BF00BF7F1EFDD100BF7D
:1016F00000BF00BF07480221FFF704FF0648022190
:10170000FFF700FFDDF800E001B07047B01B0000FC
:10171000041B00001000002029000020FFFFFFFF35
:1017200081B0CDF800E01420FFF748FF0F49088092
:101730000F49FFF771FE0F480121FFF7E3FE01217A
:101740000B48FFF7DFFE0C480221FFF7DBFE48F6EF
:101750007F57C0F25B0700BF00BF7F1EFDD100BFF7
:1017600000BF00BFDDF800E001B070473A00002084
:101770003C0000202A00002035000020FFFFFFFF72
:1017800081B0CDF800E0002202210020FFF76CFEBE
:101790000E4801460020FFF789FE42F280512020CA
:1017A000FFF7E8FE0A480221FFF7ACFE44F67F7718
:1017B000C0F2120700BF00BF7F1EFDD100BF00BFF7
:1017C00000BFDDF800E001B0704700BFB81B0000AB
:1017D0000000002081B002490248016001B070475A
:1017E000401901006C00002081B0FEE701B0704795
:1017F00000F00EF800F024FAFFF7ECFF00F0E0F93B
:10180000FFF7BEFFFFF764FFFFF78AFFFCE7FEE785
:1018100081B0CDF800E0464A464B474C47494BF66D
:101820008030814206D94648006840F002014448B1
:10183000016011E045F6C050814206D94048006879
:1018400040F001013E48016006E03D4801686FF04C
:10185000070001403A480160FFF7E6FE394803609F
:1018600039480460394802EA00013948016002F051
:10187000010040B119463648006800F00200002817
:1018800000D1F8E700E0194602F4803040B10B4681
:101890002F48006800F40030002800D1F8E700E08D
:1018A0000B4602F0805068B12948006840F0805132
:1018B000274801602648006800F00050002800D149
:1018C000F8E7FFE702F0806078B12148006840F057
:1018D00080611F48016011461A461D48006800F0EB
:1018E0000060002800D1F8E701E011461A4601F037
:1018F000807070B11648006840F080711448016033
:1019000011461348006800F0007000B9F9E70A4674
:10191000FFE70C48006800F00C01900000F00C009C
:10192000814200D0F5E7DDF800E001B0704700BF6C
:101930008100010502841D004406010040190100D8
:1019400000200240041002402C100240FFFF0F0054
:10195000001002403800000039000000FFFFFFFFC8
:101960000000000000000000000000000000000077
:101970000000000000000000000000000000000067
:10198000000000000000000018080000180000001F
:101990000000000000000000000000000000000047
:1019A0000000000000000000000000000000000037
:1019B00000000000000000000000000030001408DB
:1019C000090000000A000000FFFFFFFF0000000008
:1019D0000000000000000000000000000000000007
:1019E00000000000000000000000000000000000F7
:1019F00000000000180800001800000000000000AF
:101A000000000000000000000000000000000000D6
:101A100000000000000000000000000000000000C6
:101A2000000000000000000004000000350000007D
:101A300036000000FFFFFFFF000000000000000074
:101A40000000000000000000000000000000000096
:101A50000000000000000000000000000000000086
:101A6000180800001800000000000000000000003E
:101A70000000000000000000000000000000000066
:101A80000000000000000000000000000000000056
:101A900000000000080000082A0000002B000000E1
:101AA0002C000000FFFFFFFF00000000000000000E
:101AB0000000000000000000000000000000000026
:101AC00000000000000000000000000018080000F6
:101AD00018080000180800000000000000000000C6
:101AE00000000000000000000000000000000000F6
:101AF00000000000000000000000000000000000E6
:101B000000112008F5130000E91300000D14000077
:101B100001140000DD130000B9130000AD13000034
:101B2000D1130000C5130000E90E00007D0D000078
:101B3000710D0000FFFFFFFFFFFFFFFFFFFFFFFF33
:101B4000FFFFFFFFFFFFFFFFFFFFFFFFFFFFFFFFA5
:101B5000FFFFFFFFFFFFFFFFFFFFFFFFFFFFFFFF95
:101B6000FFFFFFFF496E697469616C697A696E678E
:101B70002E2E2E0043757272656E742032206973AA
:101B800020696E697469616C697A656400004375E7
:101B90007272656E74203A2000206D4100000000D2
:101BA00000010203040102030406070809FFFFFF06
:101BB000710A000079010000070000000403000022
:101BC00000B5DFF814B0DFF814A0DFF814C0FFF799
:101BD00021FD00BD704700BF00000020390000203B
:101BE000641B0000FFFFFFFFFFFFFFFFFFFFFFFF82
:101BF000FFFFFFFFFFFFFFFFFFFFFFFFFFFFFFFFF5
:101C0000FFFFFFFFFFFFFFFFFFFFFFFFFFFFFFFFE4
:101C1000FFFFFFFFFFFFFFFFFFFFFFFFFFFFFFFFD4
:101C2000FFFFFFFFFFFFFFFFFFFFFFFFFFFFFFFFC4
:101C3000FFFFFFFFFFFFFFFFFFFFFFFFFFFFFFFFB4
:101C400000B5DFF810B0DFF810A0FFF723FD00BDEE
:101C5000704700BF0000002088000020FFFFFFFF4A
:00000001FF
